:020000040802F0
:1000000000030020890102089101020893010208FF
:1000100095010208970102089901020800000000FA
:100020000000000000000000000000009B0102082A
:100030009D010208000000009F010208A1010208C2
:10004000A3010208A3010208A3010208A3010208F8
:10005000A3010208A3010208A3010208A3010208E8
:10006000A3010208A3010208A3010208A3010208D8
:10007000A3010208A3010208A3010208A3010208C8
:10008000A3010208A3010208A3010208A3010208B8
:10009000A3010208A3010208A3010208A3010208A8
:1000A000A3010208A3010208A3010208A301020898
:1000B000A3010208A3010208A3010208A301020888
:1000C000A3010208A3010208A3010208A301020878
:1000D000A3010208E5060208A3010208A301020821
:1000E000A3010208A3010208A301020800F002F81C
:1000F00000F03AF80AA090E8000C82448344AAF188
:100100000107DA4501D100F02FF8AFF2090EBAE885
:100110000F0013F0010F18BFFB1A43F0010318473B
:10012000BC090000DC090000103A24BF78C878C17F
:10013000FAD8520724BF30C830C144BF04680C60ED
:10014000704700000023002400250026103A28BF35
:1001500078C1FBD8520728BF30C148BF0B60704739
:100160001FB51FBD10B510BD00F06CF81146FFF7AC
:10017000F7FF00F093FC00F09EF803B4FFF7F2FFE6
:1001800003BC00F033FC00000948804709480047E1
:10019000FEE7FEE7FEE7FEE7FEE7FEE7FEE7FEE737
:1001A000FEE7FEE704480549034A054B7047000097
:1001B00085060208ED00020800010020000300206F
:1001C00000010020704700000FB4044910B503AAD5
:1001D000029800F009F810BC5DF814FB3400002010
:1001E0007047704770477047074B70B50D467B44AA
:1001F00000F011F80446284600F020F810B14FF046
:10020000FF3070BD204670BD8F08000001694A1C98
:1002100002610878704700B58FB0CDE90131002147
:10022000059105497944CDE903101146684600F06F
:100230002EF80FB000BD0000E5FFFFFF007B00F0CF
:1002400080007047754600F03FF8AE4605006946ED
:10025000534620F00700854618B020B5FFF7A2FFEF
:10026000BDE820404FF000064FF000074FF00008B7
:100270004FF0000B21F00701AC46ACE8C009ACE838
:10028000C009ACE8C009ACE8C0098D4670472DE94B
:10029000F04106460024D6E90170F56880463046F4
:1002A00003E04146B847641C3046A8470028F8D10F
:1002B0002046BDE8F08110B50446AFF3008020462B
:1002C000BDE81040FFF759BF004870479C00002070
:1002D0002DE9F041024600250026002000230024DD
:1002E000002791F803C00CF00F0591F803C00CF043
:1002F000100CBCF1000F03D091F802C04CEA0505C8
:1003000091F800C0BCF1000F31D0146800202BE040
:100310004FF0010C0CFA00F3B1F800C00CEA030630
:100320009E4220D183004FF00F0C0CFA03F7BC4320
:1003300005FA03FC4CEA040491F803C0BCF1280F51
:1003400006D14FF0010C0CFA00FCC2F814C00AE010
:1003500091F803C0BCF1480F05D14FF0010C0CFA25
:1003600000FCC2F810C0401C0828D1D31460B1F8BA
:1003700000C0BCF1FF0F34DD546800202EE000F116
:10038000080C4FF0010808FA0CF3B1F800C00CEAB1
:1003900003069E4221D183004FF00F0C0CFA03F7A5
:1003A000BC4305FA03FC4CEA040491F803C0BCF119
:1003B000280F05D100F1080C08FA0CF8C2F81480D7
:1003C00091F803C0BCF1480F07D100F1080C4FF0C1
:1003D000010808FA0CF8C2F81080401C0828CED397
:1003E0005460BDE8F081000070B5002100230F22A9
:1003F000C47804B3154C246804F4E064C4F5E064E4
:10040000210AC1F10403CA40447804FA03F1847854
:100410001440214309010E4C0678A155047804F0DC
:100420001F050124AC4005786D11AD0005F1E025F4
:10043000C5F8004109E0047804F01F050124AC4030
:10044000044D0678761145F8264070BD0CED00E0AD
:1004500000E400E080E100E002490143024A11604B
:10046000704700000000FA050CED00E0024A0A4067
:100470000243024B1A60704780FFFF1F08ED00E047
:1004800029B1064A92690243044B9A6104E0034A87
:1004900092698243014B9A6170470000001002404C
:1004A00030B500210022002400232D4D6D6805F099
:1004B0000C0121B1042905D0082923D105E0294DDB
:1004C000056022E0274D05601FE0254D6D6805F4AD
:1004D0007012234D6D6805F48034022505EB9242BD
:1004E0001CB9214D554305600BE01D4D6D6805F4A9
:1004F00000351DB11C4D5543056002E0194D5543B3
:10050000056002E0174D056000BF00BF144D6D6827
:1005100005F0F0010909154D6B5C0568DD4045608B
:100520000F4D6D6805F4E061090A104D6B5C45687C
:10053000DD4085600A4D6D6805F46051C90A0B4DB8
:100540006B5C4568DD40C560054D6D6805F4404154
:10055000890B074D6B5CC568B5FBF3F5056130BDD4
:100560000010024000127A0000093D000000002047
:100570001000002010B500F001F810BD0CB50020EF
:10058000019000903348006840F4803031490860A1
:1005900000BF3048006800F4003000900198401C13
:1005A0000190009818B90198B0F5A06FF1D12948D1
:1005B000006800F4003010B10120009001E000203C
:1005C00000900098012843D12348006840F01000B3
:1005D000214908600846006820F0030008600846CA
:1005E000006840F0020008601A48406819494860F5
:1005F0000846406848600846406840F480604860AB
:100600000846406820F47C1048600846406840F482
:10061000E81048600846006840F08070086000BF3D
:100620000C48006800F000700028F9D009484068C4
:1006300020F00300074948600846406840F0020087
:10064000486000BF0348406800F00C000828F9D15A
:100650000CBD00000010024000200240042808D118
:100660004FF0E021096941F004014FF0E0221161EF
:1006700007E04FF0E021096921F004014FF0E0228A
:100680001161704710B51348006840F0010011492E
:10069000086008464068104908400E49486008460E
:1006A00000680E4908400B4908600846006820F4BD
:1006B000802008600846406820F4FE0048604FF43F
:1006C0001F008860FFF756FF4FF000600449086084
:1006D00010BD0000001002400000FFF8FFFFF6FE12
:1006E00008ED00E010B540F22551214800F061F816
:1006F000C0B31F4800F018F9C4B21E48008800F4C7
:10070000004078BB1B48008800F4804060B10A2C90
:1007100003D000201749086020E01648006840F424
:1007200000401449086019E00D2C06D111480068FA
:1007300040F480400F49086010E00E480088C0F384
:100740000D000D490C540B480068401C0949086015
:1007500008460068642801D100200860214604484A
:1007600000F0E7F840F22551014800F007F810BD0D
:1007700000380140300000203800002010B5002271
:10078000002340F66A14A14200D100BF0A120124DE
:100790009440A3B2DC43048010BD21B1828942F4AD
:1007A0000052828104E082894DF6FF731A408281F3
:1007B000704770B50246002400230025002040F653
:1007C0006A16B14200D100BFC1F3421501F01F0308
:1007D000012606FA03F3012D02D19689334006E083
:1007E000022D02D1168A334001E0968A33400C1262
:1007F000012606FA04F41688344013B10CB1012026
:1008000000E0002070BDF0B503460024002600255E
:10081000002040F66A17B94200D100BF1846C1F364
:10082000421401F01F06012707FA06F5012C01D139
:100830000C3004E0022C01D1103000E014301AB169
:1008400007682F43076002E00768AF430760F0BD09
:100850002DE9F04786B005460E460024A24600BFAB
:10086000A1460027B08900B100BF2F462C8A4CF664
:10087000FF700440F08804432C82AC894EF6F310DC
:100880000440B08831890843718908430443AC812E
:10089000AC8A4FF6FF400440B0890443AC8201A803
:1008A000FFF7FEFD1F48874202D1DDF810A001E0EE
:1008B000DDF80CA0A88900F4004040B10AEBCA00A2
:1008C00000EB0A1031684900B0FBF1F807E00AEBD1
:1008D000CA0000EB0A1031688900B0FBF1F864200F
:1008E000B8FBF0F004012009642101FB1089A889FC
:1008F00000F4004040B1322000EBC900B0FBF1F041
:1009000000F00700044308E0322000EB09106421E6
:10091000B0FBF1F000F00F0004432C8106B0BDE8FD
:10092000F08700000038014001468888C0F30800C5
:100930007047C1F3080282807047000010B586B08E
:10094000044601210420FFF79BFD01218803FFF7E6
:1009500097FD18208DF817004FF40070ADF81400C3
:1009600003208DF8160005A91E48FFF7B1FC0420EE
:100970008DF817000002ADF8140003208DF8160062
:1009800005A91848FFF7A4FC25208DF810000120C8
:100990008DF8130000208DF8110002208DF8120050
:1009A00004A8FFF721FD00940020ADF80C000C20F6
:1009B000ADF80A000020ADF80800ADF80600ADF86B
:1009C000040069460848FFF743FF012240F2255121
:1009D0000548FFF718FF01210348FFF7DEFE06B0C8
:1009E00010BD0000000801400038014000BF704702
:1009F00010B56FF00400FFF731FE074800680749A3
:100A0000B0FBF1F006490860084600684FF47A71BF
:100A100048430449086010BD1400002000127A0009
:100A2000280000202C00002010B1B0F5E96F00D99B
:100A30007047124A126842434FF0E0235A61002285
:100A40009A611A46126942F001021A6100BF4FF022
:100A5000E022116901F001021AB101F48032002A8A
:100A6000F5D04FF0E022126922F001024FF0E023AE
:100A70001A6100229A6100BFDAE700002C00002012
:100A800000BF054A128802F04002002AF9D0C2B223
:100A9000014B1B1D1A807047003801404FF4A060C5
:100AA000FFF7DAFC4FF400318802FFF7DFFCFFF7B5
:100AB0009FFF4FF4E130FFF741FF06E003A0FFF78F
:100AC00083FB4FF47A70FFF7AFFFF7E70A31323359
:100AD00034353637383930090A000000FC0A02087C
:100AE000000000203800000028010208340B020832
:100AF00038000020C8020000440102080000000085
:100B0000010203040102030406070809020406089F
:100B100000A24A04000000000000000001020304DB
:100B200006070809000000000000000000000000A7
:040B300000000000C1
:04000005080200ED00
:00000001FF
